S0160000436F6E74726F6C5F4C69676874312E73726563A5
S11300000C9434000C9451000C9451000C94510045
S11300100C9451000C9451000C9451000C94510018
S11300200C9451000C9451000C9451000C94510008
S11300300C9451000C9451000C94D6010C94510072
S11300400C9451000C9451000C9451000C945100E8
S11300500C9451000C9451000C9451000C945100D8
S11300600C9451000C94510011241FBECFEFD8E022
S1130070DEBFCDBF11E0A0E0B1E0EEEFF9E002C0D9
S113008005900D92A431B107D9F721E0A4E1B1E0C4
S113009001C01D92AE31B207E1F70E94FB010C943E
S11300A0FD040C94000095B1907F282F22952F70A9
S11300B0922B95B995B19F7D95B995B1906195B9FC
S11300C095E09A95F1F7000095B19F7E95B995B1A9
S11300D0907F8F70892B85B985B1806185B985E062
S11300E08A95F1F7000085B18F7E85B98FE39FE192
S11300F00197F1F700C00000089595B1907F282F73
S113010022952F70922B95B995B1906295B995B1BE
S1130110906195B995E09A95F1F7000095B19F7EAD
S113012095B995B1907F8F70892B85B985B1806120
S113013085B985E08A95F1F7000085B18F7E85B990
S11301408FE39FE10197F1F700C00000089584B1A7
S11301508F6384B92FEF89EF90E021508040904065
S1130160E1F700C0000082E00E94530088E20E9490
S113017053008CE00E94530086E00E94530081E00B
S11301800E9453008FE39FE10197F1F700C0000044
S11301900895811180E4860F80680E9453000895B9
S11301A0CF93DF93EC0103C021960E947D008881E8
S11301B08111FACFDF91CF91089526B130E0A901E2
S11301C002C0559547958A95E2F7CA0151E0852703
S11301D0817090E008958BB1817E8BB98091180174
S11301E0909119011816190654F4809118019091F0
S11301F01901079724F48BB182608BB9089580911B
S1130200180190911901079754F080911801909169
S113021019010D9724F48BB186608BB908958091F0
S11302201801909119010D9754F080911801909143
S11302301901439724F48BB18E608BB90895809192
S113024018019091190143971CF08BB18E618BB901
S113025008950F931F93CF93DF93CDB7DEB76097C5
S11302600FB6F894DEBF0FBECDBF81E00E945300ED
S11302708FE39FE10197F1F700C0000060E080E0A8
S11302800E94C90080E091E00E94D00060E081E01B
S11302900E94C90080911801909119019F938F9336
S11302A08EE091E09F938F938E010F5F1F4F1F93FA
S11302B00F930E941302C8010E94D0000F900F9068
S11302C00F900F900F900F9060960FB6F894DEBFCA
S11302D00FBECDBFDF91CF911F910F9108950F9362
S11302E01F93CF93DF9384E00E94DD00EC0180E054
S11302F00E94DD008C012097F1F08091160190910D
S11303001701892BC1F401151105A9F48091180175
S1130310909119018F3F910509F04CF480911801D7
S113032090911901019690931901809318010E94EC
S1130330EB000E94290101151105E1F080911401DF
S113034090911501892BB1F42097A1F480911801A3
S113035090911901181619064CF480911801909186
S11303601901019790931901809318010E94EB00E1
S11303700E942901D0931701C0931601109315010F
S113038000931401DF91CF911F910F91089584B5CB
S1130390826084BD85B5836085BD89EF87BDEEE647
S11303A0F0E0808182608083789408951F920F9298
S11303B00FB60F9211248F939F93AF93BF938091A5
S11303C01A0190911B01A0911C01B0911D0101968D
S11303D0A11DB11D80931A0190931B01A0931C01D0
S11303E0B0931D01BF91AF919F918F910F900FBE5C
S11303F00F901F90189587B18E7E87B98AB18E6150
S11304008AB90E94A7000E94C7010E9429010E9484
S11304106F012FEF80E792E0215080409040E1F798
S113042000C00000F4CFAEE0B0E0E9E1F2E00C94EB
S1130430D4040D891E8986E08C831A8309838FEF87
S11304409FE79E838D83AE01475E5F4F6F89788DF2
S1130450CE0101960E943502EF81F885E00FF11F6D
S113046010822E96E4E00C94F004ABE0B0E0EBE3F1
S1130470F2E00C94C6046C017B018A01FC01178232
S11304801682838181FFCCC1CE0101963C01F60125
S11304909381F70193FD859193FF81917F018823D7
S11304A009F4BAC1853239F493FD859193FF8191A2
S11304B07F01853229F4B60190E00E942C04E7CF35
S11304C0912C212C312CFFE1F315D8F08B3279F0EB
S11304D038F4803279F08332A1F4232D20611DC0D9
S11304E08D3261F0803369F4232D216016C0832D91
S11304F08260382EE32DE4603E2E2AC0F32DF8608E
S11305001DC037FC2DC020ED280F2A3040F08E325C
S1130510B9F436FC81C1232D2064322E19C036FE75
S113052006C08AE0989E200D1124922E11C0EAE0A4
S11305302E9E200D1124222EF32DF0623F2E08C092
S11305408C3621F4832D8068382E02C0883641F41D
S1130550F70193FD859193FF81917F018111B3CFC1
S1130560982F9F7D9554933028F40C5F1F4F9FE381
S113057099830DC0833631F0833771F0833509F0E8
S113058059C021C0F801808189830E5F1F4F8824E0
S11305908394912C530113C02801F2E04F0E511C97
S11305A0F801A080B18036FE03C0692D70E002C05E
S11305B06FEF7FEFC5010E9421044C018201F32DEE
S11305C0FF773F2E16C0280122E0420E511CF8018D
S11305D0A080B18036FE03C0692D70E002C06FEFC9
S11305E07FEFC5010E9416044C01F32DF0683F2EE5
S11305F0820133FC1BC0822D90E088169906B0F46A
S1130600B60180E290E00E942C042A94F4CFF50114
S113061037FC859137FE81915F01B60190E00E941D
S11306202C0421102A9421E0821A91088114910447
S113063071F7E8C0843611F0893641F5F80137FEC8
S113064007C060817181828193810C5F1F4F08C054
S113065060817181072E000C880B990B0E5F1F4F70
S1130660F32DFF763F2E97FF09C0909580957095E6
S113067061957F4F8F4F9F4FF0683F2E2AE030E007
S1130680A3010E946804882E861845C0853731F47A
S1130690232D2F7EB22E2AE030E025C0932D997FA2
S11306A0B92E8F36C1F018F4883579F0B5C080378B
S11306B019F0883721F0B0C0E92FE061BE2EB4FEF6
S11306C00DC0FB2DF460BF2E09C034FE0AC0292FD3
S11306D02660B22E06C028E030E005C020E130E0FC
S11306E002C020E132E0F801B7FE07C060817181E9
S11306F0828193810C5F1F4F06C06081718180E00D
S113070090E00E5F1F4FA3010E946804882E861894
S1130710FB2DFF773F2E36FE0DC0232D2E7FA22EFC
S1130720891458F434FE0BC032FC09C0832D8E7E2C
S1130730A82E05C0B82CA32C03C0B82C01C0B92C1A
S1130740A4FE0FC0FE01E80DF11D8081803321F469
S11307509A2D997EA92E09C0A2FE06C0B394B39423
S113076004C08A2D867809F0B394A3FC11C0A0FEBE
S113077006C0B21488F4280C922C9B180EC0B21434
S113078060F4B60180E290E00E942C04B394F7CFA9
S1130790B21418F42B1802C0982C212CA4FE10C0FB
S11307A0B60180E390E00E942C04A2FE17C0A1FCD5
S11307B003C088E790E002C088E590E0B6010CC071
S11307C08A2D867859F0A1FE02C08BE201C080E236
S11307D0A7FC8DE2B60190E00E942C04891438F441
S11307E0B60180E390E00E942C049A94F7CF8A9497
S11307F0F301E80DF11D8081B60190E00E942C0404
S11308008110F5CF222009F442CEB60180E290E0B7
S11308100E942C042A94F6CFF6018681978102C0A7
S11308208FEF9FEF2B96E2E10C94E204FC0105901C
S1130830615070400110D8F7809590958E0F9F1FDE
S11308400895FC016150704001900110D8F7809523
S113085090958E0F9F1F08950F931F93CF93DF934F
S1130860FB01238121FD03C08FEF9FEF2CC022FFEA
S113087016C046815781248135814217530744F4B9
S1130880A081B1819D012F5F3F4F318320838C93E1
S1130890268137812F5F3F4F3783268314C08B0116
S11308A0EC01FB010084F185E02D0995892BE1F62B
S11308B0D80116968D919C911797019617969C9343
S11308C08E931697CE01DF91CF911F910F910895CA
S11308D0FA01AA27283051F1203181F1E8946F936D
S11308E06E7F6E5F7F4F8F4F9F4FAF4FB1E03ED013
S11308F0B4E03CD0670F781F891F9A1FA11D680FB1
S1130900791F8A1F911DA11D6A0F711D811D911DE3
S1130910A11D20D009F468943F912AE0269F112458
S11309203019305D3193DEF6CF010895462F4770BC
S1130930405D4193B3E00FD0C9F7F6CF462F4F7017
S1130940405D4A3318F0495D31FD4052419302D075
S1130950A9F7EACFB4E0A69597958795779567951B
S1130960BA95C9F700976105710508959B01AC011B
S11309700A2E06945795479537952795BA95C9F742
S1130980620F731F841F951FA01D08952F923F921D
S11309904F925F926F927F928F929F92AF92BF928B
S11309A0CF92DF92EF92FF920F931F93CF93DF9337
S11309B0CDB7DEB7CA1BDB0B0FB6F894DEBF0FBE94
S11309C0CDBF09942A88398848885F846E847D84E1
S11309D08C849B84AA84B984C884DF80EE80FD80E3
S11309E00C811B81AA81B981CE0FD11D0FB6F89459
S11109F0DEBF0FBECDBFED010895F894FFCF1A
S11309FE50656F706C6520436F756E743A002530C8
S1070A0E3364000049
S9030000FC
